{
  "_format": "hh-sol-artifact-1",
  "contractName": "USDCPredictionMarket",
  "sourceName": "contracts/core/USDCPredictionMarket.sol",
  "abi": [
    {
      "inputs": [
        {
          "internalType": "address",
          "name": "_usdcAddress",
          "type": "address"
        }
      ],
      "stateMutability": "nonpayable",
      "type": "constructor"
    },
    {
      "inputs": [
        {
          "internalType": "address",
          "name": "owner",
          "type": "address"
        }
      ],
      "name": "OwnableInvalidOwner",
      "type": "error"
    },
    {
      "inputs": [
        {
          "internalType": "address",
          "name": "account",
          "type": "address"
        }
      ],
      "name": "OwnableUnauthorizedAccount",
      "type": "error"
    },
    {
      "inputs": [],
      "name": "ReentrancyGuardReentrantCall",
      "type": "error"
    },
    {
      "anonymous": false,
      "inputs": [
        {
          "indexed": true,
          "internalType": "uint256",
          "name": "marketId",
          "type": "uint256"
        },
        {
          "indexed": true,
          "internalType": "address",
          "name": "user",
          "type": "address"
        },
        {
          "indexed": false,
          "internalType": "bool",
          "name": "isYes",
          "type": "bool"
        },
        {
          "indexed": false,
          "internalType": "uint256",
          "name": "amount",
          "type": "uint256"
        }
      ],
      "name": "BetPlaced",
      "type": "event"
    },
    {
      "anonymous": false,
      "inputs": [
        {
          "indexed": false,
          "internalType": "uint256",
          "name": "amount",
          "type": "uint256"
        }
      ],
      "name": "FeesWithdrawn",
      "type": "event"
    },
    {
      "anonymous": false,
      "inputs": [
        {
          "indexed": false,
          "internalType": "uint256",
          "name": "amount",
          "type": "uint256"
        }
      ],
      "name": "ForfeitedWithdrawn",
      "type": "event"
    },
    {
      "anonymous": false,
      "inputs": [
        {
          "indexed": true,
          "internalType": "uint256",
          "name": "marketId",
          "type": "uint256"
        },
        {
          "indexed": false,
          "internalType": "string",
          "name": "asset",
          "type": "string"
        },
        {
          "indexed": false,
          "internalType": "uint256",
          "name": "targetPrice",
          "type": "uint256"
        },
        {
          "indexed": false,
          "internalType": "uint256",
          "name": "deadline",
          "type": "uint256"
        },
        {
          "indexed": true,
          "internalType": "address",
          "name": "creator",
          "type": "address"
        }
      ],
      "name": "MarketCreated",
      "type": "event"
    },
    {
      "anonymous": false,
      "inputs": [
        {
          "indexed": true,
          "internalType": "uint256",
          "name": "marketId",
          "type": "uint256"
        },
        {
          "indexed": false,
          "internalType": "bool",
          "name": "outcome",
          "type": "bool"
        }
      ],
      "name": "MarketResolved",
      "type": "event"
    },
    {
      "anonymous": false,
      "inputs": [
        {
          "indexed": true,
          "internalType": "address",
          "name": "previousOwner",
          "type": "address"
        },
        {
          "indexed": true,
          "internalType": "address",
          "name": "newOwner",
          "type": "address"
        }
      ],
      "name": "OwnershipTransferred",
      "type": "event"
    },
    {
      "anonymous": false,
      "inputs": [
        {
          "indexed": true,
          "internalType": "uint256",
          "name": "marketId",
          "type": "uint256"
        },
        {
          "indexed": true,
          "internalType": "address",
          "name": "user",
          "type": "address"
        },
        {
          "indexed": false,
          "internalType": "uint256",
          "name": "amount",
          "type": "uint256"
        }
      ],
      "name": "WinningsClaimed",
      "type": "event"
    },
    {
      "inputs": [],
      "name": "DEFAULT_MIN_BET",
      "outputs": [
        {
          "internalType": "uint256",
          "name": "",
          "type": "uint256"
        }
      ],
      "stateMutability": "view",
      "type": "function"
    },
    {
      "inputs": [],
      "name": "FEE_PERCENTAGE",
      "outputs": [
        {
          "internalType": "uint256",
          "name": "",
          "type": "uint256"
        }
      ],
      "stateMutability": "view",
      "type": "function"
    },
    {
      "inputs": [
        {
          "internalType": "string",
          "name": "asset",
          "type": "string"
        },
        {
          "internalType": "address",
          "name": "feed",
          "type": "address"
        }
      ],
      "name": "addPriceFeed",
      "outputs": [],
      "stateMutability": "nonpayable",
      "type": "function"
    },
    {
      "inputs": [
        {
          "internalType": "uint256",
          "name": "_marketId",
          "type": "uint256"
        },
        {
          "internalType": "address",
          "name": "_user",
          "type": "address"
        }
      ],
      "name": "calculateWinnings",
      "outputs": [
        {
          "internalType": "uint256",
          "name": "",
          "type": "uint256"
        }
      ],
      "stateMutability": "view",
      "type": "function"
    },
    {
      "inputs": [
        {
          "internalType": "uint256",
          "name": "_marketId",
          "type": "uint256"
        }
      ],
      "name": "claimWinnings",
      "outputs": [],
      "stateMutability": "nonpayable",
      "type": "function"
    },
    {
      "inputs": [
        {
          "internalType": "string",
          "name": "_asset",
          "type": "string"
        },
        {
          "internalType": "uint256",
          "name": "_targetPrice",
          "type": "uint256"
        },
        {
          "internalType": "uint256",
          "name": "_duration",
          "type": "uint256"
        },
        {
          "internalType": "uint256",
          "name": "_minBet",
          "type": "uint256"
        },
        {
          "internalType": "bool",
          "name": "_isAbove",
          "type": "bool"
        }
      ],
      "name": "createMarket",
      "outputs": [
        {
          "internalType": "uint256",
          "name": "",
          "type": "uint256"
        }
      ],
      "stateMutability": "nonpayable",
      "type": "function"
    },
    {
      "inputs": [
        {
          "internalType": "uint256",
          "name": "_marketId",
          "type": "uint256"
        }
      ],
      "name": "getMarketInfo",
      "outputs": [
        {
          "internalType": "string",
          "name": "question",
          "type": "string"
        },
        {
          "internalType": "string",
          "name": "asset",
          "type": "string"
        },
        {
          "internalType": "uint256",
          "name": "targetPrice",
          "type": "uint256"
        },
        {
          "internalType": "uint256",
          "name": "deadline",
          "type": "uint256"
        },
        {
          "internalType": "uint256",
          "name": "yesPool",
          "type": "uint256"
        },
        {
          "internalType": "uint256",
          "name": "noPool",
          "type": "uint256"
        },
        {
          "internalType": "bool",
          "name": "resolved",
          "type": "bool"
        },
        {
          "internalType": "bool",
          "name": "outcome",
          "type": "bool"
        },
        {
          "internalType": "address",
          "name": "creator",
          "type": "address"
        },
        {
          "internalType": "bool",
          "name": "isAbove",
          "type": "bool"
        }
      ],
      "stateMutability": "view",
      "type": "function"
    },
    {
      "inputs": [
        {
          "internalType": "uint256",
          "name": "_marketId",
          "type": "uint256"
        }
      ],
      "name": "getOdds",
      "outputs": [
        {
          "internalType": "uint256",
          "name": "yesOdds",
          "type": "uint256"
        },
        {
          "internalType": "uint256",
          "name": "noOdds",
          "type": "uint256"
        }
      ],
      "stateMutability": "view",
      "type": "function"
    },
    {
      "inputs": [
        {
          "internalType": "uint256",
          "name": "_marketId",
          "type": "uint256"
        },
        {
          "internalType": "address",
          "name": "_user",
          "type": "address"
        }
      ],
      "name": "getUserPosition",
      "outputs": [
        {
          "internalType": "uint256",
          "name": "yesAmount",
          "type": "uint256"
        },
        {
          "internalType": "uint256",
          "name": "noAmount",
          "type": "uint256"
        },
        {
          "internalType": "bool",
          "name": "claimed",
          "type": "bool"
        },
        {
          "internalType": "uint256",
          "name": "potentialWinnings",
          "type": "uint256"
        }
      ],
      "stateMutability": "view",
      "type": "function"
    },
    {
      "inputs": [],
      "name": "marketIdCounter",
      "outputs": [
        {
          "internalType": "uint256",
          "name": "",
          "type": "uint256"
        }
      ],
      "stateMutability": "view",
      "type": "function"
    },
    {
      "inputs": [
        {
          "internalType": "uint256",
          "name": "",
          "type": "uint256"
        }
      ],
      "name": "markets",
      "outputs": [
        {
          "internalType": "string",
          "name": "question",
          "type": "string"
        },
        {
          "internalType": "string",
          "name": "asset",
          "type": "string"
        },
        {
          "internalType": "uint256",
          "name": "targetPrice",
          "type": "uint256"
        },
        {
          "internalType": "uint256",
          "name": "deadline",
          "type": "uint256"
        },
        {
          "internalType": "uint256",
          "name": "yesPool",
          "type": "uint256"
        },
        {
          "internalType": "uint256",
          "name": "noPool",
          "type": "uint256"
        },
        {
          "internalType": "bool",
          "name": "resolved",
          "type": "bool"
        },
        {
          "internalType": "bool",
          "name": "outcome",
          "type": "bool"
        },
        {
          "internalType": "address",
          "name": "creator",
          "type": "address"
        },
        {
          "internalType": "uint256",
          "name": "minBet",
          "type": "uint256"
        },
        {
          "internalType": "uint256",
          "name": "totalFees",
          "type": "uint256"
        },
        {
          "internalType": "bool",
          "name": "isAbove",
          "type": "bool"
        }
      ],
      "stateMutability": "view",
      "type": "function"
    },
    {
      "inputs": [],
      "name": "owner",
      "outputs": [
        {
          "internalType": "address",
          "name": "",
          "type": "address"
        }
      ],
      "stateMutability": "view",
      "type": "function"
    },
    {
      "inputs": [
        {
          "internalType": "uint256",
          "name": "_marketId",
          "type": "uint256"
        },
        {
          "internalType": "bool",
          "name": "_isYes",
          "type": "bool"
        },
        {
          "internalType": "uint256",
          "name": "_amount",
          "type": "uint256"
        }
      ],
      "name": "placeBet",
      "outputs": [],
      "stateMutability": "nonpayable",
      "type": "function"
    },
    {
      "inputs": [
        {
          "internalType": "string",
          "name": "",
          "type": "string"
        }
      ],
      "name": "priceFeeds",
      "outputs": [
        {
          "internalType": "address",
          "name": "",
          "type": "address"
        }
      ],
      "stateMutability": "view",
      "type": "function"
    },
    {
      "inputs": [],
      "name": "renounceOwnership",
      "outputs": [],
      "stateMutability": "nonpayable",
      "type": "function"
    },
    {
      "inputs": [
        {
          "internalType": "uint256",
          "name": "_marketId",
          "type": "uint256"
        }
      ],
      "name": "resolveMarket",
      "outputs": [],
      "stateMutability": "nonpayable",
      "type": "function"
    },
    {
      "inputs": [
        {
          "internalType": "address",
          "name": "newOwner",
          "type": "address"
        }
      ],
      "name": "transferOwnership",
      "outputs": [],
      "stateMutability": "nonpayable",
      "type": "function"
    },
    {
      "inputs": [],
      "name": "usdc",
      "outputs": [
        {
          "internalType": "contract IERC20",
          "name": "",
          "type": "address"
        }
      ],
      "stateMutability": "view",
      "type": "function"
    },
    {
      "inputs": [],
      "name": "withdrawFees",
      "outputs": [],
      "stateMutability": "nonpayable",
      "type": "function"
    },
    {
      "inputs": [],
      "name": "withdrawForfeited",
      "outputs": [],
      "stateMutability": "nonpayable",
      "type": "function"
    }
  ],
  "bytecode": "0x60806040523480156200001157600080fd5b5060405162001fa238038062001fa2833981016040819052620000349162000145565b33806200005b57604051631e4fbdf760e01b81526000600482015260240160405180910390fd5b6200006681620000f5565b5060018055600280546001600160a01b03929092166001600160a01b0319928316179055604080516242544360e81b81526005600380830182905283516023938190038401812080548716734adc67696ba383f43dd60a9e78f2c97fbbfc7cb19081179091556208aa8960eb1b8252918101929092529251908190039091019020805490921617905562000177565b600080546001600160a01b038381166001600160a01b0319831681178455604051919092169283917f8be0079c531659141344cd1fd0a4f28419497f9722a3daafe3b4186f6b6457e09190a35050565b6000602082840312156200015857600080fd5b81516001600160a01b03811681146200017057600080fd5b9392505050565b611e1b80620001876000396000f3fe608060405234801561001057600080fd5b50600436106101205760003560e01c80636d1c789f116100ad578063ac901ba311610071578063ac901ba314610280578063b1283e771461028a578063cb8ae86c146102b5578063f15cc406146102e9578063f2fde38b146102fc57600080fd5b80636d1c789f14610212578063715018a61461021b578063869da9db146102235780638da5cb5b1461025c578063a9f15a3d1461026d57600080fd5b80633e413bee116100f45780633e413bee146101905780633ec79193146101bb578063476343ee146101e45780636399d03d146101ec578063677bd9ff146101ff57600080fd5b80620b46f8146101255780630dc16e1f14610140578063126c4166146101555780631a38cac61461017d575b600080fd5b61012d600181565b6040519081526020015b60405180910390f35b61015361014e36600461173b565b61030f565b005b610168610163366004611789565b6103ad565b60408051928352602083019190915201610137565b61015361018b3660046117b0565b61042e565b6002546101a3906001600160a01b031681565b6040516001600160a01b039091168152602001610137565b6101ce6101c9366004611789565b6106bb565b6040516101379a99989796959493929190611838565b610153610873565b6101536101fa366004611789565b610a16565b61015361020d366004611789565b610c94565b61012d60035481565b610153610f29565b6102366102313660046118af565b610f3d565b604080519485526020850193909352901515918301919091526060820152608001610137565b6000546001600160a01b03166101a3565b61012d61027b3660046118d2565b610f97565b61012d620f424081565b61029d610298366004611789565b611206565b6040516101379c9b9a99989796959493929190611941565b6101a36102c33660046119c4565b80516020818301810180516005825292820191909301209152546001600160a01b031681565b61012d6102f73660046118af565b611387565b61015361030a3660046119f9565b611491565b6103176114cc565b6001600160a01b0381166103695760405162461bcd60e51b8152602060048201526014602482015273496e76616c69642066656564206164647265737360601b60448201526064015b60405180910390fd5b8060058360405161037a9190611a1b565b90815260405190819003602001902080546001600160a01b03929092166001600160a01b03199092169190911790555050565b60008181526004602081905260408220600581015491810154839283916103d49190611a4d565b9050806000036103eb575060329485945092505050565b80826005015460646103fd9190611a60565b6104079190611a8d565b9350808260040154606461041b9190611a60565b6104259190611a8d565b92505050915091565b6104366114f9565b6000838152600460205260409020600381015442106104885760405162461bcd60e51b815260206004820152600e60248201526d13585c9ad95d08195e1c1a5c995960921b6044820152606401610360565b600681015460ff16156104dd5760405162461bcd60e51b815260206004820152601760248201527f4d61726b657420616c7265616479207265736f6c7665640000000000000000006044820152606401610360565b80600701548210156105215760405162461bcd60e51b815260206004820152600d60248201526c10995d081d1bdbc81cdb585b1b609a1b6044820152606401610360565b6002546040516323b872dd60e01b8152336004820152306024820152604481018490526001600160a01b03909116906323b872dd906064016020604051808303816000875af1158015610578573d6000803e3d6000fd5b505050506040513d601f19601f8201168201806040525081019061059c9190611aa1565b6105df5760405162461bcd60e51b81526020600482015260146024820152731554d110c81d1c985b9cd9995c8819985a5b195960621b6044820152606401610360565b821561062a57818160040160008282546105f99190611a4d565b9091555050336000908152600a820160205260408120805484929061061f908490611a4d565b9091555061066d9050565b8181600501600082825461063e9190611a4d565b9091555050336000908152600a8201602052604081206001018054849290610667908490611a4d565b90915550505b60408051841515815260208101849052339186917f4af71b021e799c62c158bd54636ca8da2fa26115a21a2dc6efe486ec104fd15f910160405180910390a3506106b660018055565b505050565b6060806000806000806000806000806000600460008d8152602001908152602001600020905080600001816001016305f5e10083600201546106fd9190611a8d565b60038401546004850154600586015460068701546009880154875460ff808416936101008104821693620100009091046001600160a01b0316929116908a9061074590611abe565b80601f016020809104026020016040519081016040528092919081815260200182805461077190611abe565b80156107be5780601f10610793576101008083540402835291602001916107be565b820191906000526020600020905b8154815290600101906020018083116107a157829003601f168201915b505050505099508880546107d190611abe565b80601f01602080910402602001604051908101604052809291908181526020018280546107fd90611abe565b801561084a5780601f1061081f5761010080835404028352916020019161084a565b820191906000526020600020905b81548152906001019060200180831161082d57829003601f168201915b505050505098509a509a509a509a509a509a509a509a509a509a50509193959799509193959799565b61087b6114cc565b6000805b6003548110156108c1576000818152600460205260409020600801546108a59083611a4d565b600082815260046020526040812060080155915060010161087f565b50600081116109085760405162461bcd60e51b81526020600482015260136024820152724e6f206665657320746f20776974686472617760681b6044820152606401610360565b6002546001600160a01b031663a9059cbb61092b6000546001600160a01b031690565b6040516001600160e01b031960e084901b1681526001600160a01b039091166004820152602481018490526044016020604051808303816000875af1158015610978573d6000803e3d6000fd5b505050506040513d601f19601f8201168201806040525081019061099c9190611aa1565b6109e05760405162461bcd60e51b8152602060048201526015602482015274119959481dda5d1a191c985dd85b0819985a5b1959605a1b6044820152606401610360565b6040518181527f9800e6f57aeb4360eaa72295a820a4293e1e66fbfcabcd8874ae141304a76deb9060200160405180910390a150565b60008181526004602052604090206003810154421015610a6d5760405162461bcd60e51b815260206004820152601260248201527113585c9ad95d081b9bdd08195e1c1a5c995960721b6044820152606401610360565b600681015460ff1615610ab55760405162461bcd60e51b815260206004820152601060248201526f105b1c9958591e481c995cdbdb1d995960821b6044820152606401610360565b6000600582600101604051610aca9190611af8565b908152602001604051809103902060009054906101000a90046001600160a01b031690506000806000806000856001600160a01b031663feaf968c6040518163ffffffff1660e01b815260040160a060405180830381865afa158015610b34573d6000803e3d6000fd5b505050506040513d601f19601f82011682018060405250810190610b589190611b88565b9450945094509450945060008211610ba75760405162461bcd60e51b8152602060048201526012602482015271496e76616c6964207072696365206461746160701b6044820152606401610360565b60008413610be75760405162461bcd60e51b815260206004820152600d60248201526c496e76616c696420707269636560981b6044820152606401610360565b600987015460ff1615610c1657600287015460068801805461ff00191691861161010002919091179055610c34565b600287015460068801805461ff001916918610610100029190911790555b60068701805460ff19166001179081905560405189917f4927fe38919783250023d27e65a3e56b6b5c3e49364e51674a41ef08d62460d991610c8291610100900460ff161515815260200190565b60405180910390a25050505050505050565b610c9c6114f9565b6000818152600460205260409020600681015460ff16610cf45760405162461bcd60e51b815260206004820152601360248201527213585c9ad95d081b9bdd081c995cdbdb1d9959606a1b6044820152606401610360565b336000908152600a820160205260409020600281015460ff1615610d4c5760405162461bcd60e51b815260206004820152600f60248201526e105b1c9958591e4818db185a5b5959608a1b6044820152606401610360565b6000610d588433611387565b905060008111610d985760405162461bcd60e51b815260206004820152600b60248201526a4e6f2077696e6e696e677360a81b6044820152606401610360565b6006830154600090610100900460ff16610db6578260010154610db9565b82545b90506000818311610dcb576000610dd5565b610dd58284611bd8565b905060006064610de6600184611a60565b610df09190611a8d565b90506000610dfe8286611bd8565b905081876008016000828254610e149190611a4d565b90915550506002868101805460ff191660011790555460405163a9059cbb60e01b8152336004820152602481018390526001600160a01b039091169063a9059cbb906044016020604051808303816000875af1158015610e78573d6000803e3d6000fd5b505050506040513d601f19601f82011682018060405250810190610e9c9190611aa1565b610edf5760405162461bcd60e51b81526020600482015260146024820152731554d110c81d1c985b9cd9995c8819985a5b195960621b6044820152606401610360565b604051818152339089907f5380cf6fe903b40c6d5a9e0dfbca2f3a423f0a21520b4d5947ed5169bdba946d9060200160405180910390a350505050505050610f2660018055565b50565b610f316114cc565b610f3b6000611523565b565b60008281526004602090815260408083206001600160a01b0385168452600a019091528120805460018201546002830154849384938493919290919060ff16610f868a8a611387565b929a91995097509095509350505050565b6000806001600160a01b0316600587604051610fb39190611a1b565b908152604051908190036020019020546001600160a01b03160361100f5760405162461bcd60e51b8152602060048201526013602482015272105cdcd95d081b9bdd081cdd5c1c1bdc9d1959606a1b6044820152606401610360565b610e10841015801561102457506276a7008411155b6110635760405162461bcd60e51b815260206004820152601060248201526f24b73b30b634b210323ab930ba34b7b760811b6044820152606401610360565b620f42408310156110a85760405162461bcd60e51b815260206004820152600f60248201526e4d696e2062657420746f6f206c6f7760881b6044820152606401610360565b60038054600091826110b983611beb565b909155506000818152600460205260408120919250846110f6576040518060400160405280600581526020016462656c6f7760d81b815250611115565b6040518060400160405280600581526020016461626f766560d81b8152505b905088816111228a611573565b60405160200161113493929190611c04565b60408051601f1981840301815291905282906111509082611cd6565b506001820161115f8a82611cd6565b5061116e886305f5e100611a60565b600283015561117d8742611a4d565b6003830181905560068301805462010000600160b01b03191633620100008102919091179091556007840188905560098401805460ff1916881515179055604051909185917f747e87b17856feac975b1d007d7a17a5953fecf4f7b4f495bf39af6b4d5914f3916111f1918e918e91611d96565b60405180910390a35090979650505050505050565b60046020526000908152604090208054819061122190611abe565b80601f016020809104026020016040519081016040528092919081815260200182805461124d90611abe565b801561129a5780601f1061126f5761010080835404028352916020019161129a565b820191906000526020600020905b81548152906001019060200180831161127d57829003601f168201915b5050505050908060010180546112af90611abe565b80601f01602080910402602001604051908101604052809291908181526020018280546112db90611abe565b80156113285780601f106112fd57610100808354040283529160200191611328565b820191906000526020600020905b81548152906001019060200180831161130b57829003601f168201915b505050506002830154600384015460048501546005860154600687015460078801546008890154600990990154979895979496509294919360ff808316946101008404821694620100009094046001600160a01b03169390929091168c565b60008281526004602090815260408083206001600160a01b0385168452600a81019092528220600682015460ff1615806113c55750600281015460ff165b156113d55760009250505061148b565b6006820154600090610100900460ff166113f35782600501546113f9565b82600401545b6006840154909150600090610100900460ff1661141a578360040154611420565b83600501545b6006850154909150600090610100900460ff16611441578360010154611444565b83545b9050801580611451575082155b156114645760009550505050505061148b565b8261146f8383611a60565b6114799190611a8d565b6114839082611a4d565b955050505050505b92915050565b6114996114cc565b6001600160a01b0381166114c357604051631e4fbdf760e01b815260006004820152602401610360565b610f2681611523565b6000546001600160a01b03163314610f3b5760405163118cdaa760e01b8152336004820152602401610360565b60026001540361151c57604051633ee5aeb560e01b815260040160405180910390fd5b6002600155565b600080546001600160a01b038381166001600160a01b0319831681178455604051919092169283917f8be0079c531659141344cd1fd0a4f28419497f9722a3daafe3b4186f6b6457e09190a35050565b60608160000361159a5750506040805180820190915260018152600360fc1b602082015290565b8160005b81156115c457806115ae81611beb565b91506115bd9050600a83611a8d565b915061159e565b60008167ffffffffffffffff8111156115df576115df61167c565b6040519080825280601f01601f191660200182016040528015611609576020820181803683370190505b5090505b84156116745761161e600183611bd8565b915061162b600a86611dbb565b611636906030611a4d565b60f81b81838151811061164b5761164b611dcf565b60200101906001600160f81b031916908160001a90535061166d600a86611a8d565b945061160d565b949350505050565b634e487b7160e01b600052604160045260246000fd5b600082601f8301126116a357600080fd5b813567ffffffffffffffff808211156116be576116be61167c565b604051601f8301601f19908116603f011681019082821181831017156116e6576116e661167c565b816040528381528660208588010111156116ff57600080fd5b836020870160208301376000602085830101528094505050505092915050565b80356001600160a01b038116811461173657600080fd5b919050565b6000806040838503121561174e57600080fd5b823567ffffffffffffffff81111561176557600080fd5b61177185828601611692565b9250506117806020840161171f565b90509250929050565b60006020828403121561179b57600080fd5b5035919050565b8015158114610f2657600080fd5b6000806000606084860312156117c557600080fd5b8335925060208401356117d7816117a2565b929592945050506040919091013590565b60005b838110156118035781810151838201526020016117eb565b50506000910152565b600081518084526118248160208601602086016117e8565b601f01601f19169290920160200192915050565b600061014080835261184c8184018e61180c565b90508281036020840152611860818d61180c565b604084019b909b5250506060810197909752608087019590955260a086019390935290151560c0850152151560e08401526001600160a01b031661010083015215156101209091015292915050565b600080604083850312156118c257600080fd5b823591506117806020840161171f565b600080600080600060a086880312156118ea57600080fd5b853567ffffffffffffffff81111561190157600080fd5b61190d88828901611692565b9550506020860135935060408601359250606086013591506080860135611933816117a2565b809150509295509295909350565b6101808152600061195661018083018f61180c565b8281036020840152611968818f61180c565b604084019d909d5250506060810199909952608089019790975260a088019590955292151560c087015290151560e08601526001600160a01b031661010085015261012084015261014083015215156101609091015292915050565b6000602082840312156119d657600080fd5b813567ffffffffffffffff8111156119ed57600080fd5b61167484828501611692565b600060208284031215611a0b57600080fd5b611a148261171f565b9392505050565b60008251611a2d8184602087016117e8565b9190910192915050565b634e487b7160e01b600052601160045260246000fd5b8082018082111561148b5761148b611a37565b808202811582820484141761148b5761148b611a37565b634e487b7160e01b600052601260045260246000fd5b600082611a9c57611a9c611a77565b500490565b600060208284031215611ab357600080fd5b8151611a14816117a2565b600181811c90821680611ad257607f821691505b602082108103611af257634e487b7160e01b600052602260045260246000fd5b50919050565b6000808354611b0681611abe565b60018281168015611b1e5760018114611b3357611b62565b60ff1984168752821515830287019450611b62565b8760005260208060002060005b85811015611b595781548a820152908401908201611b40565b50505082870194505b50929695505050505050565b805169ffffffffffffffffffff8116811461173657600080fd5b600080600080600060a08688031215611ba057600080fd5b611ba986611b6e565b9450602086015193506040860151925060608601519150611bcc60808701611b6e565b90509295509295909350565b8181038181111561148b5761148b611a37565b600060018201611bfd57611bfd611a37565b5060010190565b6402bb4b636160dd1b815260008451611c248160058501602089016117e8565b630103132960e51b6005918401918201528451611c488160098401602089016117e8565b61080960f21b600992909101918201528351611c6b81600b8401602088016117e8565b603f60f81b600b9290910191820152600c0195945050505050565b601f8211156106b6576000816000526020600020601f850160051c81016020861015611caf5750805b601f850160051c820191505b81811015611cce57828155600101611cbb565b505050505050565b815167ffffffffffffffff811115611cf057611cf061167c565b611d0481611cfe8454611abe565b84611c86565b602080601f831160018114611d395760008415611d215750858301515b600019600386901b1c1916600185901b178555611cce565b600085815260208120601f198616915b82811015611d6857888601518255948401946001909101908401611d49565b5085821015611d865787850151600019600388901b60f8161c191681555b5050505050600190811b01905550565b606081526000611da9606083018661180c565b60208301949094525060400152919050565b600082611dca57611dca611a77565b500690565b634e487b7160e01b600052603260045260246000fdfea264697066735822122011dada5794d623a4b4b5ac38de77a8140ceba127528c923ed3161c1b9af17b2264736f6c63430008160033",
  "linkReferences": {},
  "deployedLinkReferences": {}
}