{
  "_format": "hh-sol-artifact-1",
  "contractName": "USDCPredictionMarket",
  "sourceName": "contracts/core/USDCPredictionMarket.sol",
  "abi": [
    {
      "inputs": [
        {
          "internalType": "address",
          "name": "_usdcAddress",
          "type": "address"
        }
      ],
      "stateMutability": "nonpayable",
      "type": "constructor"
    },
    {
      "inputs": [
        {
          "internalType": "address",
          "name": "owner",
          "type": "address"
        }
      ],
      "name": "OwnableInvalidOwner",
      "type": "error"
    },
    {
      "inputs": [
        {
          "internalType": "address",
          "name": "account",
          "type": "address"
        }
      ],
      "name": "OwnableUnauthorizedAccount",
      "type": "error"
    },
    {
      "inputs": [],
      "name": "ReentrancyGuardReentrantCall",
      "type": "error"
    },
    {
      "anonymous": false,
      "inputs": [
        {
          "indexed": true,
          "internalType": "uint256",
          "name": "marketId",
          "type": "uint256"
        },
        {
          "indexed": true,
          "internalType": "address",
          "name": "user",
          "type": "address"
        },
        {
          "indexed": false,
          "internalType": "bool",
          "name": "isYes",
          "type": "bool"
        },
        {
          "indexed": false,
          "internalType": "uint256",
          "name": "amount",
          "type": "uint256"
        }
      ],
      "name": "BetPlaced",
      "type": "event"
    },
    {
      "anonymous": false,
      "inputs": [
        {
          "indexed": false,
          "internalType": "uint256",
          "name": "amount",
          "type": "uint256"
        }
      ],
      "name": "FeesWithdrawn",
      "type": "event"
    },
    {
      "anonymous": false,
      "inputs": [
        {
          "indexed": false,
          "internalType": "uint256",
          "name": "amount",
          "type": "uint256"
        }
      ],
      "name": "ForfeitedWithdrawn",
      "type": "event"
    },
    {
      "anonymous": false,
      "inputs": [
        {
          "indexed": true,
          "internalType": "uint256",
          "name": "marketId",
          "type": "uint256"
        },
        {
          "indexed": false,
          "internalType": "string",
          "name": "asset",
          "type": "string"
        },
        {
          "indexed": false,
          "internalType": "uint256",
          "name": "targetPrice",
          "type": "uint256"
        },
        {
          "indexed": false,
          "internalType": "uint256",
          "name": "deadline",
          "type": "uint256"
        },
        {
          "indexed": true,
          "internalType": "address",
          "name": "creator",
          "type": "address"
        }
      ],
      "name": "MarketCreated",
      "type": "event"
    },
    {
      "anonymous": false,
      "inputs": [
        {
          "indexed": true,
          "internalType": "uint256",
          "name": "marketId",
          "type": "uint256"
        },
        {
          "indexed": false,
          "internalType": "bool",
          "name": "outcome",
          "type": "bool"
        }
      ],
      "name": "MarketResolved",
      "type": "event"
    },
    {
      "anonymous": false,
      "inputs": [
        {
          "indexed": true,
          "internalType": "address",
          "name": "previousOwner",
          "type": "address"
        },
        {
          "indexed": true,
          "internalType": "address",
          "name": "newOwner",
          "type": "address"
        }
      ],
      "name": "OwnershipTransferred",
      "type": "event"
    },
    {
      "anonymous": false,
      "inputs": [
        {
          "indexed": true,
          "internalType": "uint256",
          "name": "marketId",
          "type": "uint256"
        },
        {
          "indexed": true,
          "internalType": "address",
          "name": "user",
          "type": "address"
        },
        {
          "indexed": false,
          "internalType": "uint256",
          "name": "amount",
          "type": "uint256"
        }
      ],
      "name": "WinningsClaimed",
      "type": "event"
    },
    {
      "inputs": [],
      "name": "DEFAULT_MIN_BET",
      "outputs": [
        {
          "internalType": "uint256",
          "name": "",
          "type": "uint256"
        }
      ],
      "stateMutability": "view",
      "type": "function"
    },
    {
      "inputs": [],
      "name": "FEE_PERCENTAGE",
      "outputs": [
        {
          "internalType": "uint256",
          "name": "",
          "type": "uint256"
        }
      ],
      "stateMutability": "view",
      "type": "function"
    },
    {
      "inputs": [
        {
          "internalType": "string",
          "name": "asset",
          "type": "string"
        },
        {
          "internalType": "address",
          "name": "feed",
          "type": "address"
        }
      ],
      "name": "addPriceFeed",
      "outputs": [],
      "stateMutability": "nonpayable",
      "type": "function"
    },
    {
      "inputs": [
        {
          "internalType": "uint256",
          "name": "_marketId",
          "type": "uint256"
        },
        {
          "internalType": "address",
          "name": "_user",
          "type": "address"
        }
      ],
      "name": "calculateWinnings",
      "outputs": [
        {
          "internalType": "uint256",
          "name": "",
          "type": "uint256"
        }
      ],
      "stateMutability": "view",
      "type": "function"
    },
    {
      "inputs": [
        {
          "internalType": "uint256",
          "name": "_marketId",
          "type": "uint256"
        }
      ],
      "name": "claimWinnings",
      "outputs": [],
      "stateMutability": "nonpayable",
      "type": "function"
    },
    {
      "inputs": [
        {
          "internalType": "string",
          "name": "_asset",
          "type": "string"
        },
        {
          "internalType": "uint256",
          "name": "_targetPrice",
          "type": "uint256"
        },
        {
          "internalType": "uint256",
          "name": "_duration",
          "type": "uint256"
        },
        {
          "internalType": "uint256",
          "name": "_minBet",
          "type": "uint256"
        },
        {
          "internalType": "bool",
          "name": "_isAbove",
          "type": "bool"
        }
      ],
      "name": "createMarket",
      "outputs": [
        {
          "internalType": "uint256",
          "name": "",
          "type": "uint256"
        }
      ],
      "stateMutability": "nonpayable",
      "type": "function"
    },
    {
      "inputs": [
        {
          "internalType": "uint256",
          "name": "_marketId",
          "type": "uint256"
        }
      ],
      "name": "getMarketInfo",
      "outputs": [
        {
          "internalType": "string",
          "name": "question",
          "type": "string"
        },
        {
          "internalType": "string",
          "name": "asset",
          "type": "string"
        },
        {
          "internalType": "uint256",
          "name": "targetPrice",
          "type": "uint256"
        },
        {
          "internalType": "uint256",
          "name": "deadline",
          "type": "uint256"
        },
        {
          "internalType": "uint256",
          "name": "yesPool",
          "type": "uint256"
        },
        {
          "internalType": "uint256",
          "name": "noPool",
          "type": "uint256"
        },
        {
          "internalType": "bool",
          "name": "resolved",
          "type": "bool"
        },
        {
          "internalType": "bool",
          "name": "outcome",
          "type": "bool"
        },
        {
          "internalType": "address",
          "name": "creator",
          "type": "address"
        },
        {
          "internalType": "bool",
          "name": "isAbove",
          "type": "bool"
        }
      ],
      "stateMutability": "view",
      "type": "function"
    },
    {
      "inputs": [
        {
          "internalType": "uint256",
          "name": "_marketId",
          "type": "uint256"
        }
      ],
      "name": "getOdds",
      "outputs": [
        {
          "internalType": "uint256",
          "name": "yesOdds",
          "type": "uint256"
        },
        {
          "internalType": "uint256",
          "name": "noOdds",
          "type": "uint256"
        }
      ],
      "stateMutability": "view",
      "type": "function"
    },
    {
      "inputs": [
        {
          "internalType": "uint256",
          "name": "_marketId",
          "type": "uint256"
        },
        {
          "internalType": "address",
          "name": "_user",
          "type": "address"
        }
      ],
      "name": "getUserPosition",
      "outputs": [
        {
          "internalType": "uint256",
          "name": "yesAmount",
          "type": "uint256"
        },
        {
          "internalType": "uint256",
          "name": "noAmount",
          "type": "uint256"
        },
        {
          "internalType": "bool",
          "name": "claimed",
          "type": "bool"
        },
        {
          "internalType": "uint256",
          "name": "potentialWinnings",
          "type": "uint256"
        }
      ],
      "stateMutability": "view",
      "type": "function"
    },
    {
      "inputs": [],
      "name": "marketIdCounter",
      "outputs": [
        {
          "internalType": "uint256",
          "name": "",
          "type": "uint256"
        }
      ],
      "stateMutability": "view",
      "type": "function"
    },
    {
      "inputs": [
        {
          "internalType": "uint256",
          "name": "",
          "type": "uint256"
        }
      ],
      "name": "markets",
      "outputs": [
        {
          "internalType": "string",
          "name": "question",
          "type": "string"
        },
        {
          "internalType": "string",
          "name": "asset",
          "type": "string"
        },
        {
          "internalType": "uint256",
          "name": "targetPrice",
          "type": "uint256"
        },
        {
          "internalType": "uint256",
          "name": "deadline",
          "type": "uint256"
        },
        {
          "internalType": "uint256",
          "name": "yesPool",
          "type": "uint256"
        },
        {
          "internalType": "uint256",
          "name": "noPool",
          "type": "uint256"
        },
        {
          "internalType": "bool",
          "name": "resolved",
          "type": "bool"
        },
        {
          "internalType": "bool",
          "name": "outcome",
          "type": "bool"
        },
        {
          "internalType": "address",
          "name": "creator",
          "type": "address"
        },
        {
          "internalType": "uint256",
          "name": "minBet",
          "type": "uint256"
        },
        {
          "internalType": "uint256",
          "name": "totalFees",
          "type": "uint256"
        },
        {
          "internalType": "bool",
          "name": "isAbove",
          "type": "bool"
        }
      ],
      "stateMutability": "view",
      "type": "function"
    },
    {
      "inputs": [],
      "name": "owner",
      "outputs": [
        {
          "internalType": "address",
          "name": "",
          "type": "address"
        }
      ],
      "stateMutability": "view",
      "type": "function"
    },
    {
      "inputs": [
        {
          "internalType": "uint256",
          "name": "_marketId",
          "type": "uint256"
        },
        {
          "internalType": "bool",
          "name": "_isYes",
          "type": "bool"
        },
        {
          "internalType": "uint256",
          "name": "_amount",
          "type": "uint256"
        }
      ],
      "name": "placeBet",
      "outputs": [],
      "stateMutability": "nonpayable",
      "type": "function"
    },
    {
      "inputs": [
        {
          "internalType": "string",
          "name": "",
          "type": "string"
        }
      ],
      "name": "priceFeeds",
      "outputs": [
        {
          "internalType": "address",
          "name": "",
          "type": "address"
        }
      ],
      "stateMutability": "view",
      "type": "function"
    },
    {
      "inputs": [],
      "name": "renounceOwnership",
      "outputs": [],
      "stateMutability": "nonpayable",
      "type": "function"
    },
    {
      "inputs": [
        {
          "internalType": "uint256",
          "name": "_marketId",
          "type": "uint256"
        },
        {
          "internalType": "uint256",
          "name": "_price",
          "type": "uint256"
        }
      ],
      "name": "resolveMarketWithPrice",
      "outputs": [],
      "stateMutability": "nonpayable",
      "type": "function"
    },
    {
      "inputs": [
        {
          "internalType": "address",
          "name": "newOwner",
          "type": "address"
        }
      ],
      "name": "transferOwnership",
      "outputs": [],
      "stateMutability": "nonpayable",
      "type": "function"
    },
    {
      "inputs": [],
      "name": "usdc",
      "outputs": [
        {
          "internalType": "contract IERC20",
          "name": "",
          "type": "address"
        }
      ],
      "stateMutability": "view",
      "type": "function"
    },
    {
      "inputs": [],
      "name": "withdrawFees",
      "outputs": [],
      "stateMutability": "nonpayable",
      "type": "function"
    },
    {
      "inputs": [],
      "name": "withdrawForfeited",
      "outputs": [],
      "stateMutability": "nonpayable",
      "type": "function"
    }
  ],
  "bytecode": "0x60803461013057601f611bcd38819003918201601f19168301916001600160401b038311848410176101355780849260209460405283398101031261013057516001600160a01b0380821691829003610130573315610117576023906000549260018060a01b0319933385821617600055604051923391167f8be0079c531659141344cd1fd0a4f28419497f9722a3daafe3b4186f6b6457e0600080a3600180558360025416176002556242544360e81b815260056003820152207307da0e54543a844a80abe69c8a12f22b3aa59f9d828254161790557371041dddad3595f9ced3dccfbe3d1f4b0a16bb7060236040516208aa8960eb1b8152600560038201522091825416179055604051611a81908161014c8239f35b604051631e4fbdf760e01b815260006004820152602490fd5b600080fd5b634e487b7160e01b600052604160045260246000fdfe608080604052600436101561001357600080fd5b60003560e01c9081620b46f814611517575080630dc16e1f14611452578063126c4166146114285780631a38cac6146112095780633e413bee146111e05780633ec7919314611111578063476343ee14610f9a578063677bd9ff14610d295780636d1c789f14610d0b578063706b776914610afb578063715018a614610aa2578063869da9db14610a2a5780638da5cb5b14610a01578063a9f15a3d146104a3578063ac901ba314610485578063b1283e771461039c578063cab7cde914610226578063cb8ae86c146101bd578063f15cc4061461018f5763f2fde38b146100fa57600080fd5b3461018a57602036600319011261018a576004356001600160a01b038181169182900361018a57610129611921565b811561017157600054826bffffffffffffffffffffffff60a01b821617600055167f8be0079c531659141344cd1fd0a4f28419497f9722a3daafe3b4186f6b6457e0600080a3005b604051631e4fbdf760e01b815260006004820152602490fd5b600080fd5b3461018a57604036600319011261018a5760206101b56101ad6115d2565b600435611852565b604051908152f35b3461018a57602036600319011261018a5760043567ffffffffffffffff811161018a576101f0602091369060040161158b565b8161020460405192838151938492016115e8565b600590820190815281900382019020546040516001600160a01b039091168152f35b3461018a57604036600319011261018a5760043560243581600052600460205260406000209060038201544210610362576006820160ff81541661032a5781156102f5578260209260ff60097f4927fe38919783250023d27e65a3e56b6b5c3e49364e51674a41ef08d62460d9960154166000146102d65760029190910154825461ff001916911160081b61ff00161781555b600160ff198254161780915560ff6040519160081c1615158152a2005b60029190910154825461ff001916911060081b61ff00161781556102b9565b60405162461bcd60e51b815260206004820152600d60248201526c496e76616c696420707269636560981b6044820152606490fd5b60405162461bcd60e51b815260206004820152601060248201526f105b1c9958591e481c995cdbdb1d995960821b6044820152606490fd5b60405162461bcd60e51b815260206004820152601260248201527113585c9ad95d081b9bdd08195e1c1a5c995960721b6044820152606490fd5b3461018a57602036600319011261018a57600435600052600460205261041d60406000206103c98161166a565b906103d66001820161166a565b60028201549160038101546004820154600583015460068401549160078501549361042b60ff6009600889015498015416976040519b8c9b8c6101808091528d019061160b565b908b820360208d015261160b565b60408a01989098526060890152608088015260a087015260ff818116151560c0880152600882901c16151560e087015260101c6001600160a01b031661010086015261012085015261014084015215156101608301520390f35b3461018a57600036600319011261018a576020604051620f42408152f35b3461018a5760a036600319011261018a5760043567ffffffffffffffff811161018a576104d490369060040161158b565b60843515156084350361018a5760405181516104f48183602086016115e8565b60059082019081528190036020019020546001600160a01b0316156109c657610e106044351015806109b7575b1561097f57620f424060643510610948576003549061053f82611843565b6003558160005260046020526040600020916084356000146109245760405161056781611531565b600581526461626f766560d81b6020820152925b610615602c6105916305f5e10060243504611970565b956040519687916402bb4b636160dd1b602084015287516105b9816025860160208c016115e8565b8301630103132960e51b60258201526105dc8251809360206029850191016115e8565b0161080960f21b60298201526105fc825180936020602b850191016115e8565b01603f60f81b602b82015203600c81018752018561154d565b835167ffffffffffffffff8111610856576106308254611630565b601f81116108e0575b506020601f821160011461087757819293949560009261086c575b50508160011b916000199060031b1c19161781555b825167ffffffffffffffff8111610856576106876001830154611630565b601f811161080f575b50826020948592601f811160011461077f57807f747e87b17856feac975b1d007d7a17a5953fecf4f7b4f495bf39af6b4d5914f39394600091610774575b508160011b916000199060031b1c19161760018501555b602435600285015560096106fb6044354261170f565b6003860181905560068601805462010000600160b01b033360101b1662010000600160b01b031990911617905560643560078701559401805460ff191660ff608435151516179055604051606080825290916107599183019061160b565b936024358783015260408201528033940390a3604051908152f35b9050820151886106ce565b60018501600052866000209360005b601f19831681106107f55750907f747e87b17856feac975b1d007d7a17a5953fecf4f7b4f495bf39af6b4d5914f3939460019282601f198116106107dc575b5050811b0160018501556106e5565b84015160001960f88460031b161c1916905588806107cd565b83820151865560019095019487945090880190880161078e565b600183016000526020600020601f830160051c81016020841061084f575b601f830160051c82018110610843575050610690565b6000815560010161082d565b508061082d565b634e487b7160e01b600052604160045260246000fd5b015190508580610654565b8260005260206000209060005b601f19841681106108c8575060019394959683601f198116106108af575b505050811b018155610669565b015160001960f88460031b161c191690558580806108a2565b9091602060018192858b015181550193019101610884565b826000526020600020601f830160051c81016020841061091d575b601f830160051c82018110610911575050610639565b600081556001016108fb565b50806108fb565b60405161093081611531565b600581526462656c6f7760d81b60208201529261057b565b60405162461bcd60e51b815260206004820152600f60248201526e4d696e2062657420746f6f206c6f7760881b6044820152606490fd5b60405162461bcd60e51b815260206004820152601060248201526f24b73b30b634b210323ab930ba34b7b760811b6044820152606490fd5b506276a7006044351115610521565b60405162461bcd60e51b8152602060048201526013602482015272105cdcd95d081b9bdd081cdd5c1c1bdc9d1959606a1b6044820152606490fd5b3461018a57600036600319011261018a576000546040516001600160a01b039091168152602090f35b3461018a57604036600319011261018a576080600435610a486115d2565b90806000526004602052600a60406000200160018060a01b038316600052602052604060002090610a8882549360ff600260018601549501541692611852565b916040519384526020840152151560408301526060820152f35b3461018a57600036600319011261018a57610abb611921565b600080546001600160a01b0319811682556001600160a01b03167f8be0079c531659141344cd1fd0a4f28419497f9722a3daafe3b4186f6b6457e08280a3005b3461018a57600036600319011261018a57610b14611921565b6000805b600354821015610bc557816000526004602052604060002091600683015460ff90818116610b4d575b50506001019150610b18565b60081c16928315610bbb5760048101545b8415610bb0576005820154905b8115159081610ba7575b5015610b415790610b8a60009260019561170f565b948214610b9e57600501555b829184610b41565b60040155610b96565b90501586610b75565b600482015490610b6b565b6005810154610b5e565b8015610cc7576002546000805460405163a9059cbb60e01b81526001600160a01b03918216600482015260248101859052926020928492604492849291165af1908115610cbb57600091610c8c575b5015610c475760207f16ab9b27b7807855c92b8984bb92b2aebb4c3de14cb07161358a12f87ed8cdde91604051908152a1005b60405162461bcd60e51b815260206004820152601b60248201527f466f72666569746564207769746864726177616c206661696c656400000000006044820152606490fd5b610cae915060203d602011610cb4575b610ca6818361154d565b8101906117db565b82610c14565b503d610c9c565b6040513d6000823e3d90fd5b606460405162461bcd60e51b815260206004820152602060248201527f4e6f20666f7266656974656420616d6f756e747320746f2077697468647261776044820152fd5b3461018a57600036600319011261018a576020600354604051908152f35b3461018a5760208060031936011261018a57600435610d4661194d565b8060005260048252604060002091600683015460ff811615610f5f5733600052600a84018252604060002090600282019160ff835416610f2857610d8a3386611852565b918215610ef55760081c60ff16908115610eeb5754905b15610ee0576005860154915b6000928215159081610ed7575b5015610e7e57506008610dd291965b0191825461170f565b9055805460ff1916600117905560025460405163a9059cbb60e01b8152336004820152602481018590529190819083906001600160a01b0316816000816044810103925af1918215610cbb577f5380cf6fe903b40c6d5a9e0dfbca2f3a423f0a21520b4d5947ed5169bdba946d92610e5291600091610e61575b506117f3565b6040519384523393a360018055005b610e789150833d8511610cb457610ca6818361154d565b86610e4c565b915080821115610ecf57610e929082611836565b80800460011481151715610eb9576008610eb36064610dd293048094611836565b96610dc9565b634e487b7160e01b600052601160045260246000fd5b506000610e92565b90501588610dba565b600486015491610dad565b6001015490610da1565b60405162461bcd60e51b815260048101869052600b60248201526a4e6f2077696e6e696e677360a81b6044820152606490fd5b60405162461bcd60e51b815260048101859052600f60248201526e105b1c9958591e4818db185a5b5959608a1b6044820152606490fd5b60405162461bcd60e51b815260048101839052601360248201527213585c9ad95d081b9bdd081c995cdbdb1d9959606a1b6044820152606490fd5b3461018a57600036600319011261018a57610fb3611921565b6000805b600354811015610ff757806001916000526000602093600485526004610fe6600892836040862001549061170f565b958484525260408220015501610fb7565b5080156110d6576002546000805460405163a9059cbb60e01b81526001600160a01b03918216600482015260248101859052926020928492604492849291165af1908115610cbb576000916110b7575b501561107a5760207f9800e6f57aeb4360eaa72295a820a4293e1e66fbfcabcd8874ae141304a76deb91604051908152a1005b60405162461bcd60e51b8152602060048201526015602482015274119959481dda5d1a191c985dd85b0819985a5b1959605a1b6044820152606490fd5b6110d0915060203d602011610cb457610ca6818361154d565b82611047565b60405162461bcd60e51b81526020600482015260136024820152724e6f206665657320746f20776974686472617760681b6044820152606490fd5b3461018a57602036600319011261018a5760043560005260046020526111846040600020600281015460038201546004830154600584015460068501549160ff6009870154169361119261117060016111698a61166a565b990161166a565b604051998a99610140808c528b019061160b565b9089820360208b015261160b565b60408801969096526060870152608086015260a085015260ff818116151560c0860152600882901c16151560e085015260101c6001600160a01b031661010084015215156101208301520390f35b3461018a57600036600319011261018a576002546040516001600160a01b039091168152602090f35b3461018a57606036600319011261018a57600435602435908115159182810361018a576044359061123861194d565b826000526020906004825260406000209060038201544210156113f25760ff6006830154166113ad5760078201548410611378576002546040516323b872dd60e01b8152336004820152306024820152604481018690529291908490849060649082906000906001600160a01b03165af1928315610cbb57600a936112c49160009161135b57506117f3565b1561132957600481016112d885825461170f565b90553360005201815260406000206112f183825461170f565b90555b6040519384528301527f4af71b021e799c62c158bd54636ca8da2fa26115a21a2dc6efe486ec104fd15f60403393a360018055005b6005810161133885825461170f565b905533600052018152600160406000200161135483825461170f565b90556112f4565b6113729150863d8811610cb457610ca6818361154d565b89610e4c565b60405162461bcd60e51b815260048101849052600d60248201526c10995d081d1bdbc81cdb585b1b609a1b6044820152606490fd5b60405162461bcd60e51b815260048101849052601760248201527f4d61726b657420616c7265616479207265736f6c7665640000000000000000006044820152606490fd5b60405162461bcd60e51b815260048101849052600e60248201526d13585c9ad95d08195e1c1a5c995960921b6044820152606490fd5b3461018a57602036600319011261018a57604061144660043561173c565b82519182526020820152f35b3461018a57604036600319011261018a5760043567ffffffffffffffff811161018a5761148390369060040161158b565b61148b6115d2565b611493611921565b6001600160a01b03169081156114db5760206114bc9181604051938285809451938492016115e8565b60059082019081520301902080546001600160a01b0319169091179055005b60405162461bcd60e51b8152602060048201526014602482015273496e76616c69642066656564206164647265737360601b6044820152606490fd5b3461018a57600036600319011261018a5780600160209252f35b6040810190811067ffffffffffffffff82111761085657604052565b90601f8019910116810190811067ffffffffffffffff82111761085657604052565b67ffffffffffffffff811161085657601f01601f191660200190565b81601f8201121561018a578035906115a28261156f565b926115b0604051948561154d565b8284526020838301011161018a57816000926020809301838601378301015290565b602435906001600160a01b038216820361018a57565b60005b8381106115fb5750506000910152565b81810151838201526020016115eb565b90602091611624815180928185528580860191016115e8565b601f01601f1916010190565b90600182811c92168015611660575b602083101461164a57565b634e487b7160e01b600052602260045260246000fd5b91607f169161163f565b9060405191826000825461167d81611630565b908184526020946001916001811690816000146116ed57506001146116ae575b5050506116ac9250038361154d565b565b600090815285812095935091905b8183106116d55750506116ac935082010138808061169d565b855488840185015294850194879450918301916116bc565b925050506116ac94925060ff191682840152151560051b82010138808061169d565b91908201809211610eb957565b8115611726570490565b634e487b7160e01b600052601260045260246000fd5b9060009182526004602052604082206005600482015491015490611760828261170f565b9182156117ce576064810290808204606414901517156117ba57826117849161171c565b936064820291808304606414901517156117a65750906117a39161171c565b90565b634e487b7160e01b81526011600452602490fd5b634e487b7160e01b85526011600452602485fd5b5050509050603290603290565b9081602091031261018a5751801515810361018a5790565b156117fa57565b60405162461bcd60e51b81526020600482015260146024820152731554d110c81d1c985b9cd9995c8819985a5b195960621b6044820152606490fd5b91908203918211610eb957565b6000198114610eb95760010190565b9060009182526004602052604082209060018060a01b03168252600a810160205260408220600682015460ff8116158015611913575b6118ee5760081c60ff16908115611908576004830154925b82156118fe5760050154915b156118f45754925b83156118e75781156118ee5782156118e75781840291848304036117a657506117a392916118e19161171c565b9061170f565b9250505090565b50505090565b60010154926118b4565b60040154916118ac565b6005830154926118a0565b5060ff600283015416611888565b6000546001600160a01b0316330361193557565b60405163118cdaa760e01b8152336004820152602490fd5b60026001541461195e576002600155565b604051633ee5aeb560e01b8152600490fd5b8015611a2d57600081805b611a1957506119898161156f565b90611997604051928361154d565b808252601f196119a68261156f565b013660208401375b80928015611a12576000198201918211610eb9578193600a926030908484068201809211610eb957855111156119fc5760f81b6001600160f81b03191660001a908401601f015304916119ae565b634e487b7160e01b600052603260045260246000fd5b5050905090565b90611a25600a91611843565b91048061197b565b50604051611a3a81611531565b60018152600360fc1b60208201529056fea2646970667358221220993127e3c9b2e58a514885c0c457e8ce83cb4f5ebbab55899cf91451932b039264736f6c63430008160033",
  "linkReferences": {},
  "deployedLinkReferences": {}
}